S02B00002F55736572732F6D61616E64657273312F706572736F6E616C2F6769742F6665646572617465645FB0
S3150800000000100020D5040008CB4B0008CB4B000895
S31508000010CB4B0008CB4B0008CB4B0008CB4B00085A
S31508000020CB4B0008CB4B0008CB4B0008CB4B00084A
S31508000030CB4B0008CB4B0008CB4B0008CB4B00083A
S31508000040CB4B0008CB4B0008CB4B0008CB4B00082A
S31508000050C50C0008CB4B0008CB4B0008CB4B00085F
S31508000060CB4B0008C53700083F4F0008CB4B0008AC
S31508000070CB4B0008CB4B0008CB4B0008CB4B0008FA
S31508000080CB4B0008CB4B0008CB4B0008CB4B0008EA
S31508000090CB4B0008510C0008CB4B0008CB4B000893
S315080000A0CB4B0008CB4B0008CB4B0008CB4B0008CA
S315080000B0CB4B0008CB4B0008CB4B0008CB4B0008BA
S315080000C0CB4B0008CB4B0008CB4B0008CB4B0008AA
S315080000D0CB4B0008CB4B0008CB4B0008CB4B00089A
S315080000E0CB4B0008CB4B0008CB4B0008CB4B00088A
S315080000F0CB4B0008CB4B0008CB4B0008CB4B00087A
S31508000100CB4B0008CB4B0008CB4B0008CB4B000869
S31508000110CB4B0008CB4B0008CB4B0008CB4B000859
S31508000120CB4B0008CB4B0008CB4B0008CB4B000849
S31508000130CB4B0008CB4B0008CB4B0008CB4B000839
S31508000140CB4B0008CB4B0008CB4B00089D4E000854
S31508000150CB4B0008CB4B0008CB4B0008CB4B000819
S31508000160CB4B0008CB4B0008CB4B0008CB4B000809
S31508000170013800D0FCE77047F8B50D462DED048B25
S315080001809FED338A144695ED006A0022F0EE488A00
S315080001900A9E018891423DDC07EE901AB8EE007A75
S315080001A0F8EE677A87EE279A16EE100A03F01AFD1C
S315080001B069EE287A064617EE900A0F4603F012FDF6
S315080001C021A3D3E9002303F065FD02460B4630461A
S315080001D0394603F0A7FB03F08FFF2860206803F079
S315080001E001FD69EE087A064617EE900A0F4603F0F7
S315080001F0F9FC15A3D3E9002303F04CFD02460B4690
S315080002003046394603F08EFB03F076FFBDEC048BCF
S315080002102060F8BD33F91200D4ED006A07EE100A23
S3150800022036F91200B8EEC77A07EE900A47EE066A64
S31508000230F8EEE77A77EEE67A013247EE278A38EE65
S31508000240278AA7E7AFF300802D431CEBE2361A3F57
S31508000250000000000348044B834202D0034B03B15D
S3150800026018477047881000208810002000000000FA
S31508000270064B0749C91A891048BF0131491003D0EE
S31508000280044B0BB101481847704700BF881000207F
S31508000290881000200000000010B5064C237843B9EA
S315080002A0FFF7D8FF044B13B10448AFF300800123CE
S315080002B0237010BDFE13002000000000E05800085F
S315080002C008B5054B1BB105490548AFF30080BDE8E5
S315080002D00840FFF7CDBF00BF0000000088100020CF
S315080002E0E0580008A3F5803A704700BF174B002B6B
S315080002F008BF134B9D46FFF7F5FF00218B460F46B7
S315080003001348144A121A04F0B2FE0E4B002B00D002
S3150800031098470D4B002B00D0984700200021040079
S315080003200D000D48002802D00C48AFF3008004F0F9
S31508000330DDF82000290004F004FE04F0BDF800BF33
S315080003400000080000000000000000000010002067
S31508000350881000200018002000000000000000009F
S315080003601022024BC3F8A020704700BF00D00350EC
S315080003701022024BC3F8A020704700BF00E00350CC
S3150800038070B5404D88B001AC0FCD0FC495E8070095
S3150800039084E80700012401213A2000F085FF3A4E3F
S315080003A00121292000F080FF384B304601A903932C
S315080003B08DF8124002F07EF82346214604220220D8
S315080003C001F08CFD022122460846002301F086FD35
S315080003D0234604220321022001F080FD042223463D
S315080003E01146022001F07AFD294D2A4B4FF4487038
S315080003F0C5F834374FF00213C5F83037A3F5803304
S31508000400C5F838371C23C5F8203702F05DFF1420DD
S31508000410FFF7AEFF02F058FF2320FFF7A1FF02F017
S3150800042053FFB9213046FFF7A3FF04F06CFCFFF732
S3150800043097FF002321461A46022001F04FFD0023AC
S3150800044002211A46084601F049FD234600220321E7
S31508000450022001F043FD234600220421022001F078
S315080004603DFD304601F090FF00212920C5F83417DC
S31508000470C5F83017C5F83817C5F8201700F014FF67
S3150800048008B070BD0051000800C0055000127A007F
S3150800049000C00350020003000346054A05491068D8
S315080004A003448B428CBF4FF0FF301360704700BF88
S315080004B010100020000004200348044A0449121AB8
S315080004C0921004F083BB00BF7C5900087C590008D1
S315080004D00018002008B500F02FF8FFF7EDFF124BC3
S315080004E012498B4212D30020114B12498B4218D362
S315080004F0FFF7FCFE186850F82240586840F822407A
S31508000500013298688242F5D30C33EAE70022F8E70D
S315080005101C6844F8220001325C68A242F8D308330A
S31508000520E4E70022F8E700BFE8580008F458000896
S31508000530F4580008F45800084FF480414FF0FF3093
S31508000540114B124A10B59A60D3F8882042F470020B
S31508000550C3F888200E4A91660E4901F500521066C6
S315080005600D4850660220C3F8D000BFF34F8FBFF383
S315080005706F8F01244FF440330848C0F88041D36098
S3150800058004600B6110BD00BF00ED00E0000000082C
S315080005900090005000800044F7FF370000E100E0BB
S315080005A0014B1868704700BF18100020084B1B6FD6
S315080005B003F00703022B04D0032B05D0012B05D02B
S315080005C0FEE7044B18687047034BFBE70348704780
S315080005D0008000501810002020100020002D310146
S315080005E008B5FFF7E3FF054B1B6FC3F3033301336E
S315080005F0B0FBF3F0024B186008BD00BF0080005046
S31508000600141000200048704700B4C404014B186851
S31508000610704700BF20100020054B1860054B1B6F64
S3150800062003F00703032B01D1FFF7DABF704700BFBA
S31508000630201000200080005000487047002D31012E
S315080006404FF0B4439868C0F304400C280AD8DFE892
S3150800065000F00B0909090909072119091B1D1F00C3
S315080006600F487047002070479B6803F04073B3F14A
S31508000670807F11D0B3F1007F10D00A4A002B08BF43
S31508000680104670470848704708487047084870473A
S315080006900848704708487047084870470848704730
S315080006A0405DC60000093D00C0EA210180BA8C0100
S315080006B00048E801005A62020024F40080841E0003
S315080006C040420F00014B1868704700BF1C100020FD
S315080006D008B501213A2000F0E7FD01230422032191
S315080006E0002001F0FBFB002004F00CFB0122354B37
S315080006F03549C3F844244FF40022A3F550335A660B
S31508000700324BD3F8FC20D20146D4D1F8803023F0FE
S31508000710030343F00203C1F880304FF4607000F021
S31508000720EBFD2A4B00F5D520D3F8F02000F2FC406B
S3150800073042F00102C3F8F020D3F8FC2042F08072A0
S31508000740C3F8FC20224AA3F55D431A60214B022216
S31508000750B0FBF3F0204B01381861C3F8F0204FF4D2
S315080007608072C3F804234FF060431C4A0020C3F884
S31508000770B02F1B4AC3F8802ED3F8002E42F480729D
S31508000780C3F8002EFF2283F82020D3F8002E22F487
S315080007908072C3F8002E08BDD3F8FC2022F08072C0
S315080007A0C3F8FC20D1F8802022F0030242F00202AE
S315080007B0C1F88020D3F8FC2042F08072C3F8FC20F0
S315080007C0ABE700BF00D003500080005000ED00E00A
S315080007D0FF030040F8590D00000004E055CEACC5F3
S315080007E0090001004FF06043D3F8802E30B5D207D8
S315080007F015D501240B4D8440D5F8FC2042F08072B3
S31508000800C5F8FC20D3F8002E2243C3F8002E53F86F
S315080008102020002AF0D003F82010002030BD112037
S31508000820FCE700BF00ED00E02DE9F04F9A46564B75
S3150800083085B01B7806460F461546DDF83C909DF8B0
S3150800084044B0DDF85080002B00F09780072A00F2AC
S3150800085096800E9B002B00F09280B9F1000F00F0F5
S315080008608E80129BB3F5006F00F38980012803D1AF
S31508000870109B002B00F08380444B03EB05131B7B76
S31508000880002B7ED0424C10220021684604F0EFFB74
S3150800089004EB45141022A7BB3946204604F0E7FBB3
S315080008A043F210036380BBF1000F03D1E37843F0F2
S315080008B00303E370364A0E9B02EB451CCCE9019311
S315080008C0129B6901581E9DF84C30C0F30A0003F0CC
S315080008D003039B0643EA001E53582E48012E00EADE
S315080008E003004EEA0003CDF800A0535017D0B8F124
S315080008F0000F2ED19CF8023068F304138CF80230EE
S3150800090027E00021204604F0B2FB4FF444736380CD
S31508000910BBF1000FCED1E37843F03003C9E71323C8
S315080009200CF1100ECCF80C309CE80F008EE80F0086
S315080009306FF00301DCF81C20109B61F39F02012F66
S31508000940CCF81C20CCF8143003D1CCF81890CCF88D
S31508000950043000270D4A290102EB051342F80180ED
S31508000960159A28465A60694622469F605E7301F0CA
S3150800097087FB384605B0BDE8F08F0748FAE7074811
S31508000980F8E70748F6E700BFFF130020A01100208C
S31508000990A01000200F80FFF3028000F0018000F015
S315080009A0078000F038B5124B05461B78DBB1E0B17D
S315080009B004F08EF90F4A00231146147B54B92B60B4
S315080009C001251A0101EB03131D738C5004F086F9F7
S315080009D0204638BD0133082B02F11002EDD104F090
S315080009E07DF90548F5E70548F3E70548F1E700BF4F
S315080009F0FF130020A0110020048000F0028000F000
S31508000A00018000F038B504F063F9002305460B4A67
S31508000A10147B6CB90133082B02F11002F8D101F0EE
S31508000A20A7FA074B28461C7004F058F9204603E03D
S31508000A30284604F053F9034838BD00BFA01100202A
S31508000A40FF130020058000F00D4B10B51B780446F7
S31508000A5093B1072812D804F03BF90A4B03EB0413A9
S31508000A601A7B2AB100241C7304F038F9204610BDFD
S31508000A7004F034F90448FAE70448F8E70448F6E7C6
S31508000A80FF130020A0110020068000F0028000F06D
S31508000A90018000F0154B13B51868002301908DF8F6
S31508000AA0043004F015F9124B1C7824B104F016F939
S31508000AB0104802B010BD01221A7004F00FF90E4B4F
S31508000AC001A81C731C7783F82C4083F83C4083F8F4
S31508000AD04C4083F85C4083F86C4083F87C400823DC
S31508000AE08DF8073001F082FA2046E2E71C5100082B
S31508000AF0FF130020038000F0A01100200A4A08B561
S31508000B0012785AB107280BD8084A02EB00131B7B48
S31508000B1043B1002101F04AFA002008BD0448FCE769
S31508000B200448FAE70448F8E7FF130020A01100205C
S31508000B30028000F0018000F0078000F00A4A08B53C
S31508000B4012785AB107280BD8084A02EB00131B7B08
S31508000B5043B1012101F02AFA002008BD0448FCE748
S31508000B600448FAE70448F8E7FF130020A01100201C
S31508000B70028000F0018000F0078000F00A4A08B5FC
S31508000B80127852B107280AD8084A02EB00131B7BD1
S31508000B903BB101F0F7FA002008BD0548FCE7054817
S31508000BA0FAE70548F8E700BFFF130020A011002068
S31508000BB0028000F0018000F0078000F00D4B1B78E2
S31508000BC093B1072812D889B10B4B03EB00131B7B93
S31508000BD073B10A4B1A6D01238340134214BF0123D4
S31508000BE0002300200B70704705487047054870477A
S31508000BF005487047FF130020A0110020000004508C
S31508000C00028000F0018000F0078000F00B4A10B562
S31508000C1012780C4662B107280CD859B1084A02EB7B
S31508000C2000131B7B43B101F0C9FA2070002010BDE8
S31508000C300448FCE70448FAE70448F8E7FF130020ED
S31508000C40A0110020028000F0018000F0078000F06B
S31508000C50184B2DE9F0411F6D5B6D1F4000D5FEE76F
S31508000C6001260025144CDFF85880374218D023682F
S31508000C70C8F85060A3B1A168284601316268A1602E
S31508000C809847637B012B0BD150B90C4B03EB4513EB
S31508000C901A7B60F341021A731A7F60F341021A77CE
S31508000CA00135082D4FEA460604F11004DDD1BDE8EA
S31508000CB0F08100BF00000450A0110020A010002001
S31508000CC000200450054B5B69DB0605D51022044B52
S31508000CD05A610122034B1A70704700BF0080045006
S31508000CE000A0045000140020044BD3F88420D20638
S31508000CF0FBD4D3F88400C0F381107047004000503D
S31508000D0038B5124B0546D3F880300C4603F003037A
S31508000D10022B0BD0032B0DD0012B0FD1FFF746FC6E
S31508000D200E2305B1286004B1236038BDFFF788FC9F
S31508000D300723F6E7FFF734FC0623F2E7044841F2F7
S31508000D40DF1103F040FF00231846EAE70080005051
S31508000D502051000838B51A4B0546D3F820010C4631
S31508000D6000F00700062821D8DFE800F028040C1454
S31508000D7010181C00FFF714FC052305B1286004B100
S31508000D80236038BDFFF742FC0323F6E7FFF758FC5C
S31508000D900723F2E7FFF750FC0223EEE7FFF700FC14
S31508000DA00623EAE7FFF732FC0423E6E7054841F2A3
S31508000DB05C2103F008FF00231846DEE70123DCE781
S31508000DC0008000502051000838B5194B0546D3F865
S31508000DD028310C4603F00703013B052B20D8DFE832
S31508000DE003F003131B0F0B17FFF7DAFB052305B1F7
S31508000DF0286004B1236038BDFFF7D2FB0623F6E767
S31508000E00FFF71EFC0723F2E7FFF700FC0323EEE7D4
S31508000E10FFF7FCFB0423EAE7FFF70EFC0223E6E7ED
S31508000E20044841F2640103F0CEFE00231846DEE7CB
S31508000E300080005020510008F7B50027144B019791
S31508000E40D3F88041064604F00304022C0D4614D05C
S31508000E50032C0DD0012C14D1394601A8FFF77AFFCF
S31508000E6010240EB1019B336005B12C6003B0F0BDB0
S31508000E70FFF7E6FB07240190F3E7FFF7DDFB019098
S31508000E80EFE741F2B131034803F09DFE3C46E8E73F
S31508000E900080005020510008002337B50193194BF4
S31508000EA00546D3F820320C4603F00703042B1FD857
S31508000EB0DFE803F025030F141900002101A8FFF746
S31508000EC083FF12230DB1019A2A6004B1236003B08F
S31508000ED030BDFFF7B5FB07230190F3E703F083FE68
S31508000EE00A230190EEE7FFF7EDFB09230190E9E7F6
S31508000EF041F22301044803F066FE0023E2E70123DA
S31508000F00E0E700BF008000502051000838B5104BBC
S31508000F100546D3F840310C4603F00303022B0BD0E9
S31508000F20032B0DD0012B0FD103F05DFE0A2305B16B
S31508000F30286004B1236038BDFFF7C4FB0923F6E730
S31508000F4003F054FE0C23F2E701230020EFE700BF6D
S31508000F5000800050002337B50193184B0546D3F897
S31508000F6060320C4603F00703013B032B1FD8DFE86A
S31508000F7003F0020E1914002101A8FFF7EBFE102357
S31508000F800DB1019A2A6004B1236003B030BD002177
S31508000F9001A8FFF7BBFF1123F2E7FFF751FB072371
S31508000FA00190EDE7FFF748FB02230190E8E741F2DD
S31508000FB0C801034803F007FE0023E1E7008000505C
S31508000FC020510008002337B50193184B0546D3F87E
S31508000FD094320C4603F00703013B032B1FD8DFE8C6
S31508000FE003F0020E1914002101A8FFF7B3FE10231F
S31508000FF00DB1019A2A6004B1236003B030BD002107
S3150800100001A8FFF783FF1123F2E7FFF719FB072370
S315080010100190EDE7FFF710FB02230190E8E741F2A4
S31508001020FB01034803F0CFFD0023E1E700800050F1
S315080010302051000873B500240F4B0194D3F8703281
S31508001040064603F00303012B0D4607D0022B11D0E9
S3150800105041F22611094803F0B6FD04E0214601A82D
S31508001060FFF754FF11240EB1019B336005B12C60C4
S3150800107002B070BD1524F6E7008000502051000824
S3150800108038B5164B0546D3F800020C4600F00700A3
S31508001090042819D8DFE800F020030B0F130003F02B
S315080010A0A2FD0A2305B1286004B1236038BDFFF705
S315080010B009FB0923F6E703F099FD0C23F2E7FFF78E
S315080010C08FFA0F23800AEDE7054841F26F4103F0D6
S315080010D07AFD00231846E5E70123E3E70080005080
S315080010E02051000838B5164B0546D3F808020C46B9
S315080010F000F00700042819D8DFE800F020030B0FDA
S31508001100130003F070FD0A2305B1286004B12360BB
S3150800111038BDFFF7D7FA0923F6E703F067FD0C2376
S31508001120F2E7FFF75DFA0F23800AEDE7054841F27B
S31508001130A74103F048FD00231846E5E70123E3E746
S31508001140008000502051000838B5104B0546D3F8EA
S3150800115040320C4603F00303022B0BD0032B0DD0B1
S31508001160012B0FD103F03FFD0A2305B1286004B116
S31508001170236038BDFFF7A6FA0923F6E703F036FD24
S315080011800C23F2E701230020EFE700BF00800050A0
S3150800119038B5104B0546D3F860310C4603F0030307
S315080011A0022B0BD0032B0DD0012B0FD103F01BFD07
S315080011B00A2305B1286004B1236038BDFFF782FA17
S315080011C00923F6E703F012FD0C23F2E701230020BA
S315080011D0EFE700BF00800050B0F5207F10B52ED095
S315080011E009D8B0F5007F24D003D868B1B0F5C07F20
S315080011F00AD000241BE0B0F5607FFAD1124BD3F871
S315080012008040C4F3011412E00F4B1C6F230B13F03C
S315080012100E0FC4F303340AD0072C08D00F2C06D0BF
S31508001220032C04D040F28521084803F0CCFC601C4E
S3150800123010BD054BD3F89040C4F30464F7E7024B9E
S315080012401C6FC4F38024F2E7008000502051000888
S315080012504FF4803238B5104B04469A6600200D4686
S31508001260FFF7BAFF41F671320C4B6043DC69DA636B
S315080012705A6804F4803422F440125DB90849884259
S3150800128094BF00200120000502435A600CB10022D9
S31508001290DA6338BD0349F2E70090005000000350B6
S315080012A0005A6202002D310138B5430904460D463D
S315080012B00ED140F22F310D4803F085FC002304F0CF
S315080012C01F0485B103F580530122A2401A6038BD78
S315080012D0012B04D0022B04D040F23D31EBE7044B3E
S315080012E0EDE7044BEBE703F50053EDE72051000863
S315080012F06480005068800050002130B5802885B091
S315080013000446CDE9001100F09F8035D85E2846D8FE
S315080013105E2844D8DFE800F09E43434343434343F3
S31508001320434343434343434343434343434343437F
S3150800133043434343434343439EAB9EABBBBBBBBB09
S31508001340BBABC550DB7450ABABAB434343434343E2
S315080013504343ABABAB7CE5AB4343434343434343D4
S315080013604343434343BB9E9E9EE05050EA8B61C075
S315080013704343434343939E00B0F5B06F00F091801A
S3150800138030D8B0F5207F72D00FD8B0F5C07F61D0C5
S31508001390B0F5007F61D0B0F5807F00F0878040F21D
S315080013A09441554803F00FFC51E0B0F5607F69D0D1
S315080013B00DD8B0F5407FF2D1FFF712F904464FF485
S315080013C02070FFF709FFB4FBF0F4640858E0B0F5A5
S315080013D0806F5CD0B0F5A06FE1D100216846FFF7B9
S315080013E05BFD34E0B0F5106F76D016D8B0F5E06F37
S315080013F077D00AD8B0F5C06F69D0B0F5D06FCED126
S3150800140000216846FFF73CFE21E0B0F5F06FC6D133
S3150800141000216846FFF7BCFE19E0B0F5406F3BD0E7
S315080014200AD8B0F5206F61D0B0F5286FB7D1002182
S315080014306846FFF7FFFD0AE0B0F5486FAFD1002117
S315080014406846FFF7BFFD02E0FFF7B0F80090009886
S3150800145005B030BDFFF7C4F8F8E7FFF7A7F805466B
S315080014602046FFF7B9FEB5FBF0F50095EFE7FFF765
S31508001470B7F804464FF42070FFF7AEFEB4FBF0F45D
S315080014800094E4E701A8FFF73BFC019DE8E700218B
S315080014906846FFF75FFCDAE700216846FFF794FC29
S315080014A0D5E700216846FFF7C7FCD0E74FF0E023F1
S315080014B002911B695B0705D5FFF792F80290029B1C
S315080014C00093C4E703A902A8FFF720FDF7E7002168
S315080014D06846FFF71BFDBAE700216846FFF702FEDC
S315080014E0B5E700216846FFF72FFEB0E700216846FA
S315080014F0FFF730FDABE700BF2051000808B5802094
S31508001500FFF7FAFE034B98429EBF4FF48032024B18
S315080015101A6708BD005A620200A000501FB50346AC
S315080015200020B3F5807F019000F0C28063D85D2B60
S3150800153054D84C2B06D82D2B46D8232B2AD840F224
S315080015407951A4E04D3B102BF9D801A252F823F0AB
S31508001550A71600083F1500083F1500083F150008A4
S31508001560591600083F1500083F1500082B170008F4
S31508001570771600081D160008211700083F150008F1
S315080015803F1500083F1500083F1500083F150008DD
S3150800159035170008243B092BD1D801A252F823F0AD
S315080015A0A7160008A7160008A7160008A716000819
S315080015B0A71600083F150008971600083F150008EB
S315080015C039160008DD1600083D2B00F082803E2BF8
S315080015D0B5D1002001A9FFF7B7FD60E0802BAED199
S315080015E0574B1B6F03F00703013B032B4DD8DFE86E
S315080015F003F04A47878FB3F5F06F6AD021D8B3F561
S31508001600B06F48D00FD8B3F5607F00F0858096D3C9
S31508001610B3F5806F47D0B3F5A06F90D1002001A92C
S31508001620FFF73AFC3BE0B3F5D06F57D0B3F5E06F60
S31508001630CFD0B3F5C06F82D1002001A9FFF766FCB1
S315080016402DE0B3F5206F70D00BD8B3F5086F4AD0EC
S31508001650B3F5106F7FF473AF002001A9FFF742FDC1
S315080016601DE0B3F5406F5BD0B3F5486F62D0B3F5B4
S31508001670286F7FF464AF002001A9FFF7DBFC0EE0BA
S31508001680052301930BE00223FBE740F2C6412D48F0
S3150800169003F099FA03E0002001A9FFF7CDFB0198B2
S315080016A005B05DF804FB002001A9FFF753FBF6E738
S315080016B04FF0E02302901B695B0705D5FEF790FF04
S315080016C00D230393039BDCE703A902A8FFF71EFC7F
S315080016D0F8E7002001A9FFF75BFDE0E7002001A974
S315080016E0FFF7CEFCDBE7164BD3F8003103F0030314
S315080016F0022B07D0032B09D0012B0BD1FEF786FF4F
S315080017000323BEE7FEF7DEFF0923BAE703F069FA0B
S315080017100823B6E70123B4E701A9FFF7F1FABEE704
S31508001720002001A9FFF750FBB9E7002001A9FFF740
S3150800173011FCB4E7002001A9FFF744FCAFE700BF9E
S3150800174000800050205100084FF48012034B5A665F
S315080017504FF48032024B9A62704700BF00900050E7
S315080017600050005A38B5036804460F2B04D940F6D2
S315080017706D317C4803F027FA63680F2B04D94FF4C0
S315080017803761784803F01FFAA3680F2B04D940F68F
S315080017907331744803F017FA237B0F2B04D940F6EC
S315080017A07631704803F00FFA637B0F2B04D940F6A5
S315080017B079316C4803F007FAA37B3F2B04D940F62E
S315080017C07C31684803F0FFF9E37B3F2B04D940F6E8
S315080017D07F31644803F0F7F92369032B04D940F6EF
S315080017E08231604803F0EFF96369032B04D940F6A8
S315080017F085315C4803F0E7F9E369032B04D940F621
S315080018008831584803F0DFF98020FFF787FE032860
S3150800181000F083804FF48012534B4FF0A0615A6654
S3150800182045F60E02514BC3F88020514A91624FF497
S31508001830803102F5805291629A6DD203FCD4996D7B
S3150800184011F08041FBD1D4E90002120542EA006298
S31508001850E07B0243207B42EA0042607B42EA003298
S31508001860A07B42EA80121A619869D4E904521206EA
S3150800187042EA856200F000400243A07EE57E02430C
S31508001880207E42EA0042607E42EA00229A611A6A93
S31508001890E06922F00F0242EA8502364D00283DD162
S315080018A01A6294F82420996A94F82000D2002940F4
S315080018B042EA40120A4394F8211042EA011242F41D
S315080018C080329A622C49294A936D31EA0303FBD187
S315080018D04FF08071264881621369A56823F4700366
S315080018E043EA055313614FF00043836194F82230AD
S315080018F00BB9224B996294F823303BB94FF48032E6
S315080019001E4B9A62194A936D5B00FCD494F82530F5
S315080019101BB1164B1A4AC3F8802038BD024342F061
S31508001920080202281A6208D119614FF4085299610F
S3150800193014484FF47F4103F08DF90C4994F822308E
S315080019408A6A94F820001B062A4043EA4013134388
S3150800195094F8242043EAC20394F8232043EA024376
S315080019608B62D3E720510008009000500040005ACF
S315080019700050005AC7FFFEFE030001000060005A2F
S31508001980F1A7FFFF3440005A014B93F90000704756
S315080019907C100020436810B5072B044604D940F68E
S315080019A0B3512A4803F00FF9A368032B04D940F66C
S315080019B0B551264803F007F92378032B04D940F6D6
S315080019C0B751224803F0FFF894F90130002B04DAE6
S315080019D040F6B9511D4803F0F6F84FF400011C4AC9
S315080019E0637851664FF4D151022002F5B83251623C
S315080019F018494F2B48604FF0010028BF4F2301F5C7
S31508001A00805148601169C903FCD4217843EA01234F
S31508001A105361D4E901131B0143EA0123617B0B439C
S31508001A20217B43EA41039360E37BA17B1B0143EAE5
S31508001A304113617C0B43217C43EA41035360A37C39
S31508001A4013B16FF4D153536210BD00BF2051000883
S31508001A500090005000100250014B1880704700BFDC
S31508001A607A100020014B1880704700BF78100020BC
S31508001A70B0F5207F38B577D00ED8B0F5007F61D0A5
S31508001A8003D890B3B0F5C07F2FD040F21231BDE82D
S31508001A9038403D4803F097B8B0F5607FF5D13B4A2A
S31508001AA04C1ED2F8FC5015F080751EBFD2F8FC30DB
S31508001AB023F08073C2F8FC30032C04D940F2F221DB
S31508001AC0314803F080F8324AD2F8803023F03003E8
S31508001AD043EA0413C2F8803035B12C4AD2F8FC30F8
S31508001AE043F08073C2F8FC3038BD4C1E012C0AD96D
S31508001AF0102903D8274BCB40DB0704D440F2C72173
S31508001B00214803F060F803F0B4F803F0C0F84FF486
S31508001B108031214B1E4A1967136F23F4704343EA39
S31508001B2004331367FEF75CFD0446FFF7DDF8C0F1E2
S31508001B300201204603F0A5F800F040F8BDE8384059
S31508001B40FFF7DCBC4C1E1F2C04D940F206310E48A8
S31508001B5003F039F80E4AD2F8903023F0F85343EAE6
S31508001B600463C2F89030BFE74C1E012C04D94FF429
S31508001B704371054803F027F8054A136F23F4806379
S31508001B8043EA84231367AFE72051000800ED00E01D
S31508001B9000800050100101000090005008B5012196
S31508001BA0022000F02FF803F064F803F070F84FF401
S31508001BB08032014B1A6708BD0090005008B54FF4F3
S31508001BC0C070FFF799FBBDE808400449884294BFF6
S31508001BD0012102214FF42070FFF74ABF80F0FA0274
S31508001BE0024A536B0342FCD1704700BF00400950BC
S31508001BF0034A0179D36E23F030030B43D36670474B
S31508001C0000400050F8B50446244BD3F88420D0068B
S31508001C10FBD4D3F88430C3F381139C423CD0FEF73F
S31508001C20C5FC012C05460BD11D4B984204D940F240
S31508001C3092711C4802F0C7FF0121284603F021F8DB
S31508001C4003F03FF84FF00072174B07465A662046D6
S31508001C5003F047F84FF48063104E621E93403367D3
S31508001C60736E9A0103D4D6F884309B060AD5384693
S31508001C7003F02BF8022C0FD12846BDE8F8400021C6
S31508001C8002F0FFBFD6F884309906E9D54FF4F4611F
S31508001C90044802F098FFE3E7F8BD00BF0040005093
S31508001CA0005A6202B05100080060005010B50C4698
S31508001CB008B9FEF77BFC074B21461B783BB1064B60
S31508001CC0984204D80120BDE81040FFF79BBF0220C8
S31508001CD0F9E700BF01140020005A62024FF00042E3
S31508001CE038B5244B244C5A664AF6CD33656C014602
S31508001CF005F00105236428BB0120FFF771FF63681F
S31508001D00DB0715D51D4B586008461D4B226BD207BD
S31508001D100CD4984208D1072415B1174B194A1A64EE
S31508001D2002F0E0FF204638BD0130EFE79842F2D0D6
S31508001D300024F1E70132236B13F0080305D08A4229
S31508001D40F8D1E8E700220E49F5E78A42E3D02021D8
S31508001D500A4A91620121A2F5805251600649084A51
S31508001D60886A800603D49342D5D00133F8E79342B4
S31508001D70DDE700BF009000500040095000600950A0
S31508001D8040420F003254FFFF4FF0004238B5164B61
S31508001D9001465A664AF6CD33144C154A656C2364D7
S31508001DA043780B205B0043F00103D363FFF718FF6A
S31508001DB063688A7823F4F87343EA02136360CA787F
S31508001DC04B7943EA0223A3600A798B7943EA022313
S31508001DD023610878FFF782FFEB0744BF054B2364AE
S31508001DE002F080FF012038BD0090005000400950E5
S31508001DF0004000503254FFFF0F2870B5044605D93D
S31508001E0040F62D61124802F0DEFE0F244FF0004224
S31508001E10104B11495D6E03F580535A664AF6CD3369
S31508001E204E6C80200B64FFF7DBFE0B6A23F00F0372
S31508001E3023430B62F30744BF084B0B64002DA2BF74
S31508001E404FF00042064B5A6602F04CFF70BD00BFC9
S31508001E50B051000800800050004009503254FFFF7E
S31508001E6000A00050032838B504460D4605D8094B8E
S31508001E7033F81030CB40DB0704D440F22D41064836
S31508001E8002F0A1FE302301225C43044BAA401A51FA
S31508001E9038BD00BF8A5300084052000840D003509E
S31508001EA0032838B504460D4605D8094B33F81030D3
S31508001EB0CB40DB0704D440F2FE31064802F083FE2D
S31508001EC0302301225C43044BAA401A5138BD00BF97
S31508001ED08A5300084052000840E0035003282DE9C1
S31508001EE0F04104460D461746984605D81D4B33F86B
S31508001EF01030CB40DB0704D44FF4B0711A4802F017
S31508001F0062FE37B129462046B8F1000F20D0FFF708
S31508001F10A9FF0F21072D04EB440688BFA5F1080386
S31508001F204FEA0616114895BFAB009B0004360C36DF
S31508001F3007FA03F29940304402F0D5FE7FB92946E4
S31508001F402046B8F1000F06D0BDE8F041FFF78ABF7A
S31508001F50FFF7A6FFDDE7BDE8F041FFF7A1BFBDE843
S31508001F60F08100BF8A530008F852000830C00350B9
S31508001F704FF400120B4B10B5C3F88020BFF34F8FF8
S31508001F80BFF36F8F0024FF22074B21465C65202094
S31508001F909A625C60FFF788F92146BDE81040212067
S31508001FA0FFF782B900E100E000000450072838B5C1
S31508001FB004460D4603DD7721084802F004FE1F2C6F
S31508001FC003D99121064802F0FEFD064A064B002D6C
S31508001FD008BF13460122A2401A6038BD9253000872
S31508001FE023540008401004504020045010B50446FD
S31508001FF018B991211F4802F0E6FD23781B0613F055
S31508002000604F03D092211B4802F0DDFDE3780F2BC9
S3150800201003D9A321174802F0D6FD01212020FFF796
S3150800202043F901212120FFF73FF90122124B5A609B
S31508002030227812069A606178A27842EA01429A6189
S31508002040FF229A6200229A631A644FF000425A6588
S315080020504FF0FF324FF4001103F500531A65074A93
S31508002060C2F88011E3781B01DBB282F815331160E0
S3150800207010BD00BF925300080000045000E100E0C4
S315080020802DE9F0410126C3B2072805460C469046BD
S3150800209006FA03F603DDEC21364802F094FD1CB976
S315080020A0ED21344802F08FFD236823F47C1323F0D6
S315080020B00F031BB1F0212F4802F085FDA37A1B04FC
S315080020C013F47C0F04D040F209112A4802F07BFD74
S315080020D0E37A1B0513F07E6F04D040F20B112548F6
S315080020E002F071FD237B5B0513F0FE5F04D040F21E
S315080020F00D11204802F067FD1F4B204F1E65AB00EF
S31508002100226803F1A04303F588235A60302202FBB4
S315080021100575637B2B66E37AA27A1B0543EA0243BD
S31508002120227B43EA4253EB6528F003032B6702F050
S31508002130CFFD7B6D33437B65237A13B13B6C334309
S315080021403B64637A13B1BB6B3343BB632279A379D0
S3150800215043EA0243084A93616179E37943EA014312
S3150800216007498B61054B56639E64BDE8F04102F052
S31508002170B5BD00BF9253000800200450000004506B
S315080021800010045010B50124C3B2072804FA03F45A
S3150800219004DD40F29711074802F015FD02F098FD9C
S315080021A0054B5A6D22EA04025A659C62BDE8104046
S315080021B002F094BD925300080000045010B50124A3
S315080021C0C3B2072804FA03F404DD40F2B5110A483D
S315080021D002F0F9FC02F07CFD084BDA6A224208D1CB
S315080021E05B6B9C430CBF0124002402F077FD20465C
S315080021F010BD0024F9E700BF925300080000045000
S315080022004FF48032064B5A6603F5E6239B69C3F3FF
S315080022108512827003F03F021B0B427003707047F1
S3150800222000900050F8B507460C461D4616464AB9B2
S315080022304FF4A171314802F0C6FC24B1402D09D1F2
S31508002240062328E021B94FF42070FFF755F8044615
S31508002250402D42D0402D09D87DB1202D17D040F20F
S315080022608911BDE8F840254802F0ADBC602DF6D1CD
S31508002270B6EB940F3CD804230DE0B6EB141F04D933
S315080022804FF4BA711D4802F09EFC102303E0B6EB2A
S31508002290D40F1CD808235E43730803EB4413B3FB1F
S315080022A0F6F3174E203BB6EBC30F4FEAC30404D22E
S315080022B04FF4D071114802F086FCBB68344023F015
S315080022C06003BB60BB681D43BD60FC61F8BD40F29E
S315080022D079110A4802F077FCDCE70623B4FBF3F32E
S315080022E0B342ADD24FF4BF71044802F06CFCA7E7C5
S315080022F040F28311014802F066FCBCE7DA54000894
S31508002300F8FF7F0070B506460C46154622B940F21E
S315080023108E210C4802F057FC24B94FF42070FEF7C2
S31508002320EBFF04466D00013CB4FBF5F4064B2502B1
S3150800233013EA042304D040F2B321024802F043FC16
S31508002340F56170BDDA540008070080FF38B50C4BFC
S31508002350044698420D4604D04FF43371094802F0FA
S3150800236032FC012204F580535A60EB43934003F094
S315080023700A036361656115B904F50054626038BDE6
S3150800238000C00550DA540008124B10B598420446AE
S3150800239004D040F24241104802F015FC012104F530
S315080023A08053596040F6AA6341F20502636100232F
S315080023B00A48A360E365E26004F500522361E3611D
S315080023C0E36490640348A365844204BF2365636598
S315080023D0516010BD00C00550DA540008FFFF010027
S315080023E0304B70B5984204460D4604D040F2FD21A4
S315080023F02D4802F0E8FB2046FFF7C6FF012304F547
S3150800240080567360AB7C1BB1A36843F08043A3601E
S31508002410EB7C5BB1234B9C4202BF2A7DA3F51033AC
S31508002420C3F8C821E36D43F08003E3652A8A6B7B12
S3150800243020461343EA891343E3602B7BD5E901124F
S31508002440FFF7F0FE6B7D1BB1A36843F48033A360EE
S31508002450AB7D1BB1A36843F40043A360EB7D2A7EE2
S315080024601B07120502F4E00203F0E0431343A365D9
S315080024706B7E9A1E012A4FF0020209D80B49032BDC
S31508002480C1F8202709D10423F3652B78636170BD51
S315080024900749012BC1F82027F4E7042204F5005365
S315080024A0DA65F2E700C00550DA54000800D0035098
S315080024B000E0035038B5294B044698420D4604D02F
S315080024C040F26931264802F07EFB2046FFF75CFFA2
S315080024D0012204F580535A602B8AA26843F001034F
S315080024E01343AA7B43EA8223A360A3682A7D43EAAF
S315080024F04273A360AB7C5BB1184B9C4202BFEA7C7B
S31508002500A3F51033C3F8C821E36D43F08003E365F0
S315080025102B7B2046D5E9011243F48053E360FFF78D
S31508002520F1FE6B7B0BB1102363616B7D1BB1A36856
S3150800253043F48033A360AB7D1BB1A36843F4004327
S31508002540A360EB7D2A7E1B07120503F0E04302F425
S31508002550E0021343A3652B78636138BD00C00550BC
S31508002560DA540008034B5A68D20702D5DA69002AFA
S31508002570F9D1704700800A50054B9A689107FCD438
S315080025805A689207F9D4DA69002AF6D1704700BF6B
S3150800259000800A5008B5FFF7E5FF0222014B1A61D1
S315080025A008BD00BF00800A5008B5FFF7E5FF012205
S315080025B0024B03F580514A601A6108BD00800A5033
S315080025C008B5044B5968012903D1FFF7E3FF024B0D
S315080025D0596008BD00800A5000A00A5010B5064C84
S315080025E0FFF7CAFF6368012B03D1FFF7E9FFFFF77F
S315080025F0C3FF0378E36010BD00800A50A8B94A6893
S315080026000B78B2B94A7843EA42038A6812B112785B
S3150800261043EA82138A7843EA8203CA6812B11278B7
S3150800262043EA4223054A936470477F21044802F02F
S31508002630CABA127843EAC203E4E700BF00800A5028
S315080026406C55000810B9044B596470474FF48971EA
S31508002650024802F0B8BA00BF00900A506C5500084C
S3150800266010B9044B596470474FF4A771024802F039
S31508002670AABA00BF00A00A506C55000810B9044B4E
S31508002680196470474FF4C571024802F09CBA00BF3E
S3150800269000A00A506C55000808B510B9044B186C10
S315080026A008BD044840F2C51102F08DFA0020F7E78C
S315080026B000800A506C55000808B520B949B10129AF
S315080026C00AD0002008BD4FF41D71054802F07BFAB8
S315080026D0F7E7044BD86CF5E7024B186DF2E700BF35
S315080026E06C55000800800A5018B939B1012908D07C
S315080026F0704740F21231044802F065BA034BDA64B7
S315080027007047024B1A6570476C55000800800A50DE
S3150800271007B5094B18689A889B7900906846ADF802
S3150800272004208DF80630FFF72FFB0920FFF764FB1E
S31508002730002003B05DF804FB0C56000813B500240E
S31508002740064A6846536F43F00103536700948DF8B1
S315080027500440FFF74DFA204602B010BD0040005075
S3150800276030B58BB06C46174D0FCD0FC40FCD0FC4C7
S3150800277095E8030084E80300134BD3F84C211203B1
S315080027801CD5A3F5FE431C884FF6FF739C4208BF71
S315080027905F248DF81940FFF7F7F8204480F3080006
S315080027A08DF818000948FDF737FF6846FEF7DAFF87
S315080027B03220FFF757F900200BB030BDD3F850414F
S315080027C0E4B2E6E7145600080080E00FC01753028B
S315080027D030B5094D87B001AC0FCD0FC42B6801A8E1
S315080027E023602C238DF80530FFF7D4F83220FFF745
S315080027F033F9002007B030BD3C5600086FF00403DB
S31508002800502110B50A480B4C13F0800F03F1010252
S3150800281007D123444C2A83F800131346F4D1002029
S3150800282010BD03F00F03043B034419761346EBE788
S3150800283000ED00E000E100E010B5044602F041FAC0
S31508002840024B1C6002F041FA002010BD2012002045
S3150800285010B502F036FA034B1C6802F036FA204629
S3150800286010BD00BF20120020302238B5037A044676
S31508002870534303F1A04303F58023DD6ED0E9032318
S3150800288013449D4201D8AA4204D94FF43E71054823
S3150800289002F099F9D4E9030303449D4218BF284678
S315080028A038BD00BF5056000830B51446054687B0F7
S315080028B01046FFF7D9FF6369024683423CBFD4E955
S315080028C003315B181B1AABB112490494039100211A
S315080028D0CDE90131012300932846D4E9001302F01B
S315080028E09FF920B14FF434710B4802F06CF90020BF
S315080028F007B030BD0122627694F82D20002AF6D062
S3150800290084F835301321E369204698472046636AE0
S315080029109847ECE7A9280008505600082DE9F04723
S3150800292088B004460F461646984602F0D1F9814605
S31508002930002E00F0AD80237E03F0FF02002B00F08E
S31508002940E0802046FFF790FF63698246984206D1E9
S31508002950637E23B940F27F316B4802F034F965692A
S31508002960AA459DBFD4E903329B185D1BAAEB050552
S31508002970B54228BF354602F0ABF994F82D308246A9
S31508002980002B40F096802A463846616902F079FBAA
S3150800299063692E462B4463612CE06069037803F073
S315080029A0FD01112940F08280216B884205D1A3F1EF
S315080029B011014B424B4184F83430013E6369216B67
S315080029C001328B4203F1010308BF23636361954219
S315080029D0E3D1D4E90323216B1344994208BF226348
S315080029E0216B8A4201D88B4204D84FF46D71464850
S315080029F002F0E9F8D4E9032361691344994208BF50
S31508002A00626161698A4201D88B4204D84FF47171B8
S31508002A103D4802F0D8F80023207A6376FEF76EF870
S31508002A2020B140F21131384802F0CDF82046FFF7C0
S31508002A301BFF636983423FD10023E568237694F838
S31508002A402D30656103B125632046636A98472F4B8D
S31508002A50049403930023029323692A4601930123CE
S31508002A60009363682168207A02F0DAF820B140F210
S31508002A702D31254802F0A7F8207AFEF75FF820B135
S31508002A8040F25131204802F09EF8504602F026F9ED
S31508002A904846C8F8006002F021F9D8F80030002B43
S31508002AA00CBF1B20002008B0BDE8F08707F8013BE3
S31508002AB084E72E4600228AE70123207A23760DF141
S31508002AC01E01FEF7A3F820B14FF450710E4802F02C
S31508002AD07AF89DF81E30207A002BCDD00DF11F0113
S31508002AE0FEF76CF820B140F24631074802F06BF861
S31508002AF09DF81F10207A0029BED12246FFF7D4FE82
S31508002B00BAE71646C4E700BF50560008A9280008C9
S31508002B1070B504460568FFF79BFE844202D1002083
S31508002B20FFF78AFE95F93630002B11DB012203F0F8
S31508002B301F015B099B0003F160438A4003F561436B
S31508002B40C3F88021C3F88020BFF34F8FBFF36F8F80
S31508002B50287AFEF713F820B14FF4ED71104802F009
S31508002B6032F8287AFDF770FF20B14FF4EF710C4860
S31508002B7002F029F8FDF746FF38B10A4B984204D00F
S31508002B804FF4F171064802F01EF800232846C4E9FE
S31508002B900033C4E90433A360AB6ABDE87040184744
S31508002BA050560008058000F02DE9F84304460D4606
S31508002BB090F82C80DFF8AC908E18AE4228D094F8A6
S31508002BC02D3083B102F084F8237E07461BBB226BA7
S31508002BD063699A4204D040F2F911484601F0F3FFBE
S31508002BE0384602F07BF894F83430002BE5D0B8F17B
S31508002BF0000F06D02B780A2B03D10D212046E36956
S31508002C0098472046E36915F8011B98470028D4D051
S31508002C100020BDE8F8832046FFF726FEE168013864
S31508002C20884238BF2069D4F830C03CBF00F1FF3075
S31508002C30401803469C450BD013F80129112A01D0E8
S31508002C40132A07D1A2F111035A425A4184F83420B3
S31508002C502063C5E7994282BF236903F1FF335B18F6
S31508002C60E8E700BF50560008F0B50C46064615467C
S31508002C7087B03822002120461F4602F0F8F995E869
S31508002C80030000232A692376EB6884E80300C4E975
S31508002C9004232A7DE36084F82C20AA7D236301237C
S31508002CA084F8343084F835300C9B84F82D20236260
S31508002CB00D9BE76163620E9BA3622B7A84F836301C
S31508002CC0204B34607360204BB360204B3361204B3C
S31508002CD07361204BF360FDF7DDFE30B11E4B984261
S31508002CE003D01024204607B0F0BD002104F10800E7
S31508002CF0FDF758FE0028F4D10127184B0494CDE9B6
S31508002D0002032369009701936368E2682168207AC1
S31508002D1001F086FF04460028E3D195F90830002B18
S31508002D200BDB03F01F025B099B0003F1604397402E
S31508002D3003F56143C3F880711F603046FFF77CFDD9
S31508002D40D0E700BFA92B00081D290008774D000809
S31508002D507D4D0008112B0008038000F0A928000803
S31508002D602DE9F0411C46594B86B00293584B012772
S31508002D70019300230C9D00939046CDE903770A46FC
S31508002D80544B2946FFF770FF0646002840F0958009
S31508002D9023683946AB6363683A20EB63637A85F840
S31508002DA04130237A85F84030E37A85F84330A37AB0
S31508002DB085F84230637B85F84530237B85F84430B7
S31508002DC0E37B85F84730A37B85F84630FEF76CFA37
S31508002DD03B460422617A207AFFF780F83B460222B6
S31508002DE0E17AA07AFFF77AF839466068FEF75CFA66
S31508002DF088F8006041462068FFF7F2FA1420617CE3
S31508002E00354B01F1390252019850607A227A03EB68
S31508002E10411342EA0042C3F83827E17AA27A42EA25
S31508002E200142C3F8302785F8486098F81930032B13
S31508002E3049D8DFE803F03946021C022385F84830F2
S31508002E4000230422E17BA07BFFF748F80220617C7F
S31508002E50214B01F1B9025201985003EB411341F29B
S31508002E602C71E07BA27B42EA00425A501CE0012703
S31508002E7085F8483002220023617B207BFFF72EF875
S31508002E80617B227B637C42EA014241F228715B0145
S31508002E9003F1A04303F570335A500422236803F55F
S31508002EA08053DA65002FCBD1AA6B0521D36C206835
S31508002EB043F00403D364FFF749FA304606B0BDE889
S31508002EC0F0810027D4E72326F7E700BF8F4D0008D7
S31508002ED0834D0008074E000800C0035030B50E4C5D
S31508002EE0416123688BB9206083600DE0891A9A686E
S31508002EF01D4641616AB113465A698A42F6D935B107
S31508002F00A860521A83605A6130BD0025F4E7206034
S31508002F10F7E798608260F7E72C12002038B500F0D2
S31508002F2075F90025084B094C1A682368C31A2AB193
S31508002F3023B15169994203D3C91A5161206038BD3A
S31508002F4055615B1A9268F2E72C12002028120020BD
S31508002F5038B5134D2B685B6993B1124A0220146881
S31508002F601C4401F092FF204600F058F900230E4950
S31508002F702A680B70D088800709D501230B7038BDE5
S31508002F80022001F082FF022000F096F9EEE792682F
S31508002F90002AF4D050690344012BEBD9EFE700BFB0
S31508002FA02C120020281200200314002000220C49AD
S31508002FB00B687BB183420AD183687AB193608368D0
S31508002FC01BB15A6941690A445A61002070471A467A
S31508002FD09B68EEE70028EFD0022070470B60EEE70B
S31508002FE02C12002070B501F073FE144E0546347895
S31508002FF0FCB9134B1C60134B1C60134B1C8000F070
S31508003000D3F8012001F041FF01F062FF0F4B0246A1
S31508003010186020B9284601F061FE232070BD2346BA
S3150800302040F2E7310A4801F0B7F80A4B1860012365
S315080030303370284601F052FE0020EFE70414002002
S315080030402C12002028120020F8130020301200202D
S3150800305018FCFFFF24120020C2072DE9F04704469A
S315080030600BD54D4A138801339BB21380FFF756FFE1
S315080030704A4B1B680BB1FFF76BFFA30740F18A8029
S3150800308001F026FE4FF0000905464E46FFF746FFBB
S31508003090C846424F3C680CB163698BB10022404B6D
S315080030A0012E1A7003D119F0020F18BF1E70002CDA
S315080030B06CD0FFF74DFF2846BDE8F04701F00EBE7D
S315080030C023465A693AB91A792179914288BF1C462A
S315080030D09B68002BF5D1284601F000FE2569DDB175
S315080030E000F094F8A269A0EB02094FEAE9734D458E
S315080030F078EB030311DA23691344A361E368B4F890
S315080031000690013613B120462168984701F0E0FD84
S315080031100546FFF703FFBDE7A94601F0D9FD82463C
S315080031202046FFF743FF504601F0D8FD2369002BE0
S31508003130E4D0B5EB09054FEAE97363EB4303002BCB
S3150800314004DA40F22B51174801F03DFDA38B33B149
S31508003150E28B13449BB2B3F57A7F0FD2E38301F077
S31508003160B7FD814629462046FFF7B8FEA3692269BE
S3150800317048461344A36101F0B1FDBFE7A3F57A738E
S31508003180E383A369013D013BA361E8E7022000F060
S315080031907DF890E7BDE8F087F81300202C12002090
S315080031A002140020F556000810B50121002486B047
S315080031B03E20ADF80810CDE903448DF804408DF89B
S315080031C00A400594FEF770F801A8FFF707FA2046AB
S315080031D002A98DF80840FFF711FA20460F21FFF7DC
S315080031E03FFA0F212046FFF749FAFFF7DDF9FFF707
S315080031F0B9F90822034B9C61034BC3F888219A60EE
S3150800320006B010BD00800A5000E100E008B5FFF7DF
S31508003210A9F9014B986908BD00800A50F8B504461B
S3150800322001F04FFD0746FFF79DF9164B9D6901F022
S3150800323028FE06460020FFF72FFA830704D4731BDF
S31508003240032B01D8AE420FD10021631B022B98BF76
S31508003250EC1C0846B4F1FF3F2CBF2246621EFFF75E
S3150800326043FA022001F011FE384601F02EFD064A07
S31508003270137833B103498B6C43F001038B64002345
S315080032801370F8BD00800A507D100020830700F0F7
S31508003290010109D50122064B41F002011A70054ABF
S315080032A0936C23F0010393640020FFF7D9B900BF9C
S315080032B07D10002000800A50830742BF0222014B7E
S315080032C01A64704700900A5010B50446FDF788F94D
S315080032D04FF47A729042B0FBF2F105D23621BDE87E
S315080032E010400C4801F06FBC0B4BB3FBF1F30B49D4
S315080032F0884201D93C21F2E702FB04F0B0FBF3F067
S31508003300022806D9BDE810400323B0FBF3F0FCF70A
S315080033102FBF10BD9957000840420F00E7CD9A3BD2
S315080033209FED237AD0ED007A67EE877AFDEEE77A8D
S3150800333017EE903AD0ED017A67EE877AFDEEE77AD6
S31508003340F0B51EB217EE903A1CB21A4B85B0186843
S3150800335017460D4600F046FC41EC100B01F0EAF961
S31508003360002251EC100B144B00F094FC00F0A4FE64
S3150800337001238DF804309D4033128DF8073023124F
S315080033808DF80930C0F307238DF80B300B4B8DF8F9
S315080033900C000922186801A98DF805508DF80670E9
S315080033A08DF808608DF80A4001F0BCFC05B0F0BD48
S315080033B00000C842341200200000594024100020A2
S315080033C008B5054B1868FFF737FA0022034BC3E91F
S315080033D000229A6008BD00BF241000204012002079
S315080033E0024B1A7818705A70704700BF09150020EA
S315080033F0012A73B503D0042A07D002B070BD1A4655
S3150800340002B0BDE87040FFF78BBF8DF80630037831
S315080034108DF805108DF80730034B01A918688DF84B
S31508003420042001F07FFCE8E72410002037B5047873
S315080034304178022C83782BD0032C2FD034BBB0F8DC
S315080034400550B0F80300EDBAC0BA00F0B9FB002287
S31508003450154B00F049FD00F04FFE144B1860284646
S3150800346000F0AEFB0022104B00F03EFD00F044FEDB
S3150800347004220F4B0121186023460DEB02008DF83C
S315080034800440FFF7B5FF01220A4B1A7003B030BD9E
S31508003490094C224600F0C6F92081F7E7074A00F0F2
S315080034A0C1F9054B5881F1E7000059403C1200204C
S315080034B03812002008140020401200204412002070
S315080034C0002337B5194801930DF10301012200685D
S315080034D001AB01F038FC0199012925D120BB144D17
S315080034E0144A2B789DF80300134CD0540133DBB2F1
S315080034F0032B2B7015D152781048033202702170B5
S315080035000E4A12789A420FD10A48FFF78FFF4FF4F6
S3150800351080720021074801F0AAFD00232B70237052
S3150800352002E02278002AEBD103B030BD2410002037
S315080035300714002009140020051400200614002092
S3150800354010B51F4B86B01B78012B16D0022B23D043
S31508003550002B33D1FFF7B4FF1A4B1A68002A2DD077
S315080035601A895B899A4229D1174B1B7833B30120F4
S3150800357006B0BDE81040FFF733BF144C114801945C
S315080035804368134A009303681249008901F0E3FC73
S31508003590022084ED000AEBE70E4B03A81B68002205
S315080035A003930B4B03211B680493084B1B68059375
S315080035B0FFF7B6FE0020044B1870D9E706B010BD19
S315080035C0091500204012002008140020341200209B
S315080035D0381200203C12002010B5274CFEF7B4F82C
S315080035E0FEF7DCFA236F23F0070343F00303236790
S315080035F001F052FB214B00209B6ADB015EBF4FF4B2
S3150800360080321F4B9A62D4F8203123F0070343F027
S315080036100203C4F82031D4F8283123F0070343F015
S315080036200203C4F82831D4F8403123F0030343F0E9
S315080036300203C4F84031D4F8603123F0030343F0A1
S315080036400203C4F86031D4F8403223F0030343F090
S315080036500203C4F84032D4F8003223F0070343F0DB
S315080036600203C4F80032D4F8083223F0070343F003
S315080036700203C4F8083210BD008000500040005A0A
S315080036800060005A07B501A8FEF7BAFD9DF8053097
S31508003690012B14D19DF804308BB94FF48012114BCD
S315080036A01149586E03F580535A664B6B23F0E05365
S315080036B043F040634B63C3025CBF0C4B5A66FFF78B
S315080036C09DF801F028FAFFF723F8FFF781F8FFF7CE
S315080036D047F8FFF781FFFFF731F803B05DF804EB11
S315080036E001F00EBA008000500040005A00A00050B9
S315080036F030B5254D95B00DAC0FCD0FC495E8070034
S31508003700032384E807008DF84D3029231F4A2049F2
S31508003710CDE9022340F20153CDE9041300210E221C
S315080037200DF12600069101F0A2FC4FF48020194BFA
S315080037300DAACDE9070309238DF824300A238DF84D
S315080037402530154B15480A9340F2EE230B930123B7
S315080037508DF83130124B07A9009302ABFFF700FB37
S31508003760044618B188210F4801F02DFA9DF8323029
S315080037704FF4E130002B0CBF0321002101F014FAAD
S31508003780204615B030BD00BFC458000800C005501B
S315080037900008000924C005500B15002098120020C7
S315080037A04C1200203558000808B5FFF7A1FF28B1CC
S315080037B0BDE80840B821024801F005BA08BD00BFB7
S315080037C035580008014801F024BB00BF98120020B4
S315080037D030B59FED137A04880020039D844206DCE9
S315080037E007EE904AB8EE670A87EE000A30BD35F94B
S315080037F010C0D1ED005A07EE90CA33F910C0D2EDC9
S31508003800006A06EE10CAB8EEC66AF8EEE77A46EE21
S31508003810256A77EEE67A013007EEA77ADEE700BF7B
S31508003820000000002DE9F04F374F9B463B7885B0E6
S31508003830FF2B88461546354EDFF8D890DFF8D8A016
S31508003840019008D1002232493A70328089F8002066
S315080038508AF800200A803A78013293451ED13488C6
S3150800386028684444A4B22146348000F037FE00B1EB
S31508003870286087F800B0DFF898B02A68BBF800100F
S31508003880019802EB41020330414601F0B0FB0022E9
S315080038906408ABF800408AF8002020E0BBF1FF0F6F
S315080038A09AF800202ED134884444A4B23480B2B9A0
S315080038B02146286887F800B000F010FE00B128609D
S315080038C0DFF84CB02B68BBF800200198414603EBA3
S315080038D042020330013C01F08AFBABF8004099F83C
S315080038E0003003A8013389F800303B7804228DF8AC
S315080038F00C3001210023FFF77BFD3088400805B016
S31508003900BDE8F08F0132C6E7FB170020FC13002044
S31508003910FA130020FA170020F917002081F0004159
S3150800392002E000BF83F0004330B54FEA41044FEA96
S31508003930430594EA050F08BF90EA020F1FBF54EA31
S31508003940000C55EA020C7FEA645C7FEA655C00F0CD
S31508003950E2804FEA5454D4EB5555B8BF6D420CDD9E
S315080039602C4480EA020281EA030382EA000083EA21
S31508003970010180EA020281EA0303362D88BF30BDC1
S3150800398011F0004F4FEA01314FF4801C4CEA113117
S3150800399002D0404261EB410113F0004F4FEA033376
S315080039A04CEA133302D0524263EB430394EA050F01
S315080039B000F0A780A4F10104D5F1200E0DDB02FA70
S315080039C00EFC22FA05F2801841F1000103FA0EF204
S315080039D0801843FA05F359410EE0A5F120050EF1CA
S315080039E0200E012A03FA0EFC28BF4CF0020C43FAFB
S315080039F005F3C01851EBE37101F0004507D54FF008
S31508003A00000EDCF1000C7EEB00006EEB0101B1F557
S31508003A10801F1BD3B1F5001F0CD349085FEA30009D
S31508003A204FEA3C0C04F101044FEA445212F5800FA8
S31508003A3080F09A80BCF1004F08BF5FEA500C50F145
S31508003A40000041EB045141EA050130BD5FEA4C0C28
S31508003A50404141EB0101013C28BFB1F5801FE9D285
S31508003A6091F0000F04BF01460020B1FA81F308BFA8
S31508003A702033A3F10B03B3F120020CDA0C3208DD74
S31508003A8002F1140CC2F10C0201FA0CF021FA02F14F
S31508003A900CE002F11402D8BFC2F1200C01FA02F1BF
S31508003AA020FA0CFCDCBF41EA0C019040E41AA2BFE4
S31508003AB001EB0451294330BD6FEA04041F3C1CDAAC
S31508003AC00C340EDC04F11404C4F1200220FA04F0CC
S31508003AD001FA02F340EA030021FA04F345EA030176
S31508003AE030BDC4F10C04C4F1200220FA02F001FA38
S31508003AF004F340EA0300294630BD21FA04F02946BA
S31508003B0030BD94F0000F83F4801306BF81F4801152
S31508003B100134013D4EE77FEA645C18BF7FEA655CC5
S31508003B2029D094EA050F08BF90EA020F05D054EA97
S31508003B30000C04BF1946104630BD91EA030F1EBF9C
S31508003B400021002030BD5FEA545C05D140004941A0
S31508003B5028BF41F0004130BD14F580043CBF01F593
S31508003B60801130BD01F0004545F0FE4141F4700179
S31508003B704FF0000030BD7FEA645C1ABF1946104654
S31508003B807FEA655C1CBF0B46024650EA013406BF55
S31508003B9052EA033591EA030F41F4002130BD00BF14
S31508003BA090F0000F04BF0021704730B54FF48064D1
S31508003BB004F132044FF000054FF0000150E700BF52
S31508003BC090F0000F04BF0021704730B54FF48064B1
S31508003BD004F1320410F0004548BF40424FF000019E
S31508003BE03EE700BF42004FEAE2014FEA31014FEAE1
S31508003BF002701FBF12F07F4393F07F4F81F0605130
S31508003C00704732F07F4208BF704793F07F4F04BF7A
S31508003C1041F40021704730B54FF4607401F0004557
S31508003C2021F000411CE700BF50EA010208BF7047B7
S31508003C3030B54FF000050AE050EA010208BF7047A8
S31508003C4030B511F0004502D5404261EB41014FF411
S31508003C50806404F132045FEA915C3FF4D8AE4FF019
S31508003C6003025FEADC0C18BF03325FEADC0C18BFFC
S31508003C70033202EBDC02C2F1200300FA03FC20FA4D
S31508003C8002F001FA03FE40EA0E0021FA02F114449A
S31508003C90BDE600BF70B54FF0FF0C4CF4E06C1CEAB3
S31508003CA011541DBF1CEA135594EA0C0F95EA0C0F24
S31508003CB000F0DEF82C4481EA030621EA4C5123EA97
S31508003CC04C5350EA013518BF52EA033541F48011C6
S31508003CD043F4801338D0A0FB02CE4FF00005E1FB79
S31508003CE002E506F00042E0FB03E54FF00006E1FBC3
S31508003CF003569CF0000F18BF4EF0010EA4F1FF0406
S31508003D00B6F5007F64F5407404D25FEA4E0E6D4145
S31508003D1046EB060642EAC62141EA55514FEAC52056
S31508003D2040EA5E504FEACE2EB4F1FD0C88BFBCF5D2
S31508003D30E06F1ED8BEF1004F08BF5FEA500E50F183
S31508003D40000041EB045170BD06F0004646EA010149
S31508003D5040EA020081EA0301B4EB5C04C2BFD4EB7B
S31508003D600C0541EA045170BD41F480114FF0000E74
S31508003D70013C00F3AB8014F1360FDEBF002001F0E2
S31508003D80004170BDC4F10004203C35DA0C341BDC5C
S31508003D9004F11404C4F1200500FA05F320FA04F02E
S31508003DA001FA05F240EA020001F0004221F0004162
S31508003DB010EBD37021FA04F642EB06015EEA430ED5
S31508003DC008BF20EAD37070BDC4F10C04C4F1200505
S31508003DD000FA04F320FA05F001FA04F240EA0200B8
S31508003DE001F0004110EBD37041F100015EEA430E89
S31508003DF008BF20EAD37070BDC4F1200500FA05F2A9
S31508003E004EEA020E20FA04F301FA05F243EA020327
S31508003E1021FA04F001F0004121FA04F220EA020036
S31508003E2000EBD3705EEA430E08BF20EAD37070BD7C
S31508003E3094F0000F0FD101F00046400041EB01015C
S31508003E4011F4801F08BF013CF7D041EA060195F03E
S31508003E50000F18BF704703F00046520043EB0303F8
S31508003E6013F4801F08BF013DF7D043EA06037047E5
S31508003E7094EA0C0F0CEA135518BF95EA0C0F0CD0F0
S31508003E8050EA410618BF52EA4306D1D181EA030136
S31508003E9001F000414FF0000070BD50EA410606BF30
S31508003EA01046194652EA430619D094EA0C0F02D175
S31508003EB050EA013613D195EA0C0F05D152EA0336BA
S31508003EC01CBF104619460AD181EA030101F00041D8
S31508003ED041F0FE4141F470014FF0000070BD41F021
S31508003EE0FE4141F4780170BD70B54FF0FF0C4CF4FB
S31508003EF0E06C1CEA11541DBF1CEA135594EA0C0F1A
S31508003F0095EA0C0F00F0A7F8A4EB050481EA030E66
S31508003F1052EA03354FEA013100F088804FEA03334D
S31508003F204FF0805545EA131343EA12634FEA02221B
S31508003F3045EA111545EA10654FEA00260EF00041DC
S31508003F409D4208BF964244F1FD0404F5407402D22E
S31508003F505B084FEA3202B61A65EB03055B084FEABF
S31508003F6032024FF480104FF4002CB6EB020E75EBBC
S31508003F70030E22BFB61A754640EA0C005B084FEAE4
S31508003F803202B6EB020E75EB030E22BFB61A754661
S31508003F9040EA5C005B084FEA3202B6EB020E75EBAC
S31508003FA0030E22BFB61A754640EA9C005B084FEA24
S31508003FB03202B6EB020E75EB030E22BFB61A754631
S31508003FC040EADC0055EA060E18D04FEA051545EA20
S31508003FD016754FEA06164FEAC30343EA52734FEAC9
S31508003FE0C2025FEA1C1CC0D111F4801F0BD141EA42
S31508003FF000014FF000004FF0004CB6E711F4801FA7
S3150800400004BF01430020B4F1FD0C88BFBCF5E06F86
S315080040103FF6AFAEB5EB030C04BFB6EB020C5FEA96
S31508004020500C50F1000041EB045170BD0EF0004EEB
S315080040304EEA113114EB5C04C2BFD4EB0C0541EA1D
S31508004040045170BD41F480114FF0000E013C90E61A
S3150800405045EA060E8DE60CEA135594EA0C0F08BFDE
S3150800406095EA0C0F3FF43BAF94EA0C0F0AD150EADD
S3150800407001347FF434AF95EA0C0F7FF425AF104670
S3150800408019462CE795EA0C0F06D152EA03353FF498
S31508004090FDAE1046194622E750EA410618BF52EA15
S315080040A043067FF4C5AE50EA41047FF40DAF52EAE9
S315080040B043057FF4EBAE12E74A0011D212F500125F
S315080040C011D20DD56FF47873B3EB62520ED44FEA62
S315080040D0C12343F0004343EA505323FA02F07047E2
S315080040E04FF00000704750EA013002D14FF0FF3020
S315080040F070474FF0000070474FEA4102B2F1E043C3
S3150800410024BFB3F5001CDCF1FE5C0DD901F0004CB0
S315080041104FEAC0024CEA5070B2F1004F40EB830000
S3150800412008BF20F00100704711F0804F21D113F12C
S315080041303872BCBF01F00040704741F480114FEA65
S315080041405252C2F11802C2F1200C10FA0CF320FAEE
S3150800415002F018BF40F001004FEAC1234FEAD3230B
S3150800416003FA0CFC40EA0C0023FA02F34FEA430375
S31508004170CCE77FEA625307D150EA01331EBF4FF0FE
S31508004180FE4040F44000704701F0004040F0FE4019
S3150800419040F40000704700BF53B94AB9002908BF68
S315080041A000281CBF4FF0FF314FF0FF3000F082B9F6
S315080041B0ADF1080C6DE904CE00F006F8DDF804E070
S315080041C0DDE9022304B070472DE9F04F099D0C463E
S315080041D0002B4DD18A420F4684469646B2FA82F3A0
S315080041E060D94BB102FA03FEC3F120029F4000FAE0
S315080041F003FC20FA02F217434FEA1E461FFA8EF412
S315080042004FEA1C42B7FBF6F106FB117701FB04F0F7
S3150800421042EA0742904208D91EEB020201F1FF3733
S3150800422002D2904200F231813946121A1FFA8CFCEA
S31508004230B2FBF6F006FB102200FB04F44CEA024C33
S31508004240644508D91EEB0C0C00F1FF3202D2644516
S3150800425000F21E81104640EA0140ACEB040C002136
S3150800426025B12CFA03F30022C5E90032BDE8F08F28
S315080042708B4205D90DB1C5E9000100210846F5E7CD
S31508004280B3FA83F100294DD1A342C0F0F3809042DE
S3150800429080F0F080064623460846002DE6D0C5E99C
S315080042A00063E3E7002B40F0A3808A1A4FEA1E4713
S315080042B01FFA8EF60121B2FBF7F407FB14204FEA2A
S315080042C01C4242EA004206FB04F090420FD91EEB5C
S315080042D0020204F1FF382CBF4FF001094FF0000924
S315080042E0904203D9B9F1000F00F0CC804446121A67
S315080042F01FFA8CFCB2FBF7F007FB102200FB06F650
S315080043004CEA024C664508D91EEB0C0C00F1FF324C
S3150800431002D2664500F2B3801046ACEB060C40EAC2
S3150800432004409DE7C1F120068B4004FA01FE22FAFB
S3150800433006F720FA06FCF4408A401F434EEA0C03AF
S3150800434000FA01FE4FEA17484FEA13491FFA87FC9D
S31508004350B4FBF8F008FB104449EA044400FB0CF9E6
S31508004360A1450ED93C1900F1FF3A2CBF4FF0010BBD
S315080043704FF0000BA14503D9BBF1000F00F08B806D
S315080043805046A4EB09041FFA83F9B4FBF8F308FBBB
S31508004390134403FB0CFC49EA0444A44506D93C191A
S315080043A003F1FF3801D2A4457BD8434643EA0040CF
S315080043B0A4EB0C04A0FB02984445CC46434602D322
S315080043C006D1CE4504D20138B9EB020C68EB0703D7
S315080043D0002D6CD0BEEB0C0264EB030422FA01F349
S315080043E004FA06F6CC4000211E43C5E900643DE701
S315080043F002FA03FEC3F1200104FA03F200FA03FCF1
S31508004400CC404FEA1E4720FA01F11FFA8EF6B4FB9C
S31508004410F7F00A4307FB1044110C41EA044100FB7C
S3150800442006F48C420ED91EEB010100F1FF382CBFB1
S315080044304FF001094FF000098C4202D9B9F1000F7B
S315080044402CD04046091B92B2B1FBF7F407FB1411B6
S3150800445042EA014204FB06F1914207D91EEB020229
S3150800446004F1FF3801D291421ED84446521A44EA52
S31508004470004120E7861A64EB030301200DE7F444A4
S3150800448002384AE7023C724431E702397244CCE604
S31508004490F4440238DFE602383C4472E702387144D5
S315080044A0D0E7023B3C4481E7023C7244DEE72946FA
S315080044B0DCE600BF704700BF08B5064B044613B1DB
S315080044C00021AFF30080044B1B6803B198472046D0
S315080044D000F07AFB00000000E8130020024B0A46B1
S315080044E00146186800F095BD2810002070B50D4DDE
S315080044F000260D4C641BA410A64209D10B4D0026BC
S315080045000B4C00F0DDFD641BA410A64205D170BD5E
S3150800451055F8043B01369847EEE755F8043B013653
S315080045209847F2E7801000208010002080100020B5
S315080045308410002038B50546002941D051F8043CBE
S315080045400C1F002BB8BFE41800F0D8F81D4A1368F2
S3150800455033B9636014602846BDE8384000F0D4B823
S31508004560A34208D9206821188B4201BF19685B68E5
S3150800457009182160EDE71A465B680BB1A342FAD920
S3150800458011685018A0420BD12068014450181160D8
S315080045908342E0D118685B68084453601060DAE724
S315080045A002D90C232B60D6E7206821188B4202BF5C
S315080045B019685B680918636008BF21605460CAE718
S315080045C038BD00BFF013002070B50F4E0C460546E7
S315080045D0316811B900F09EF830602146284600F08F
S315080045E099F8431C03D14FF0FF34204670BDC41C14
S315080045F024F00304A042F8D0211A284600F08AF8CD
S315080046000130F2D1EFE700BFEC1300202DE9F041AD
S31508004610CD1C064625F0030508350C2D38BF0C259C
S31508004620002D01DBA94204D90C2333600020BDE824
S31508004630F081314F00F062F83B681C4644BB2946BE
S315080046403046FFF7C1FF431C044650D13C6821465B
S31508004650002941D1002C44D02368304604EB0308D6
S3150800466000F058F880453CD1216830466D1A294635
S31508004670FFF7AAFF013034D023682B4423603B6838
S31508004680002B36D05A68A24229D100225A600EE081
S315080046902268521B1DD40B2A16D96119A34225601C
S315080046A018BF5960636808BF396062514B6030466D
S315080046B000F02AF804F10B00231D20F00700C21AA7
S315080046C0B5D01B1AA350B2E7A3426268DED13A609E
S315080046D0EDE723466468B1E70C464968B8E7134630
S315080046E0CEE70C233046336000F00EF89EE70560EF
S315080046F0DDE75B60FFDE00BFF0130020014800F035
S31508004700BEBC00BFFC170020014800F0B9BC00BFC2
S31508004710FC17002038B50023054D044608462B60D3
S31508004720FBF7BAFE431C02D12B6803B1236038BDE0
S31508004730F413002038B555EC104B2DED028B00F024
S315080047402DF822462B4620462946B0EE408AF0EE42
S31508004750608A00F0A5F930B90022002320462946D0
S3150800476000F076F930B9B0EE480AF0EE680ABDEC0A
S31508004770028B38BD00F0AAF900220023212101602E
S3150800478010461946FFF7B0FB41EC180BB0EE480A85
S31508004790F0EE680ABDEC028B38BD00BF78482DE9FB
S315080047A0F84F55EC104BA84322462B4600F0A7803D
S315080047B0002D214662DD2C1500F0D180C3F31303CA
S315080047C0E207A4F2FF3743F4801303D4CA0F490063
S315080047D002EB43035B0000264A00162403EBD17361
S315080047E0B6467F104FF400110EEB0100984203DC29
S315080047F01B1A01EB000E0E445B00013C4FEA510107
S3150800480003EBD2734FEA4202EED120254FF0004067
S31508004810A04615E0944548D89E4546D1BCF1000F00
S315080048200CEB000843DB0021A2EB0C02044401EB6D
S31508004830D271013D4FEA50004FEA42020B463AD088
S315080048409E4508EB000CE5DABCF1000F0CEB0008FE
S3150800485008DB9445F146A3EB0E010CD90139CE4687
S315080048604900E1E7B8F1000FF3DB94450EF10109C1
S31508004870A3EB0E01F2D84900CE46D5E725F0004055
S3150800488020433AD0002D5FD1CA0A153B4905002AB4
S31508004890FAD0D6021C460846134661D520254FF0A5
S315080048A0FF32E840A41A034388E75900BFE7B8F186
S315080048B0000FDADAB7E7114312D0DFF8CCA0DFF839
S315080048C0CCB0DAE90001DBE90023DAE90089FFF771
S315080048D029F802460B464046494600F0C3F8D0B9C7
S315080048E06508F307274948BF45F0004501EB66010F
S315080048F02A4601EB075343EC102BBDE8F88F2046F8
S315080049002946FFF7C7F922462B46FFF70DF841EC73
S31508004910100BBDE8F88FB4F1FF3FDAE90001DBE9D7
S31508004920002328D0FFF700F802460B46DAE900898B
S315080049304046494600F08CF8F8B1A21C04F102057D
S3150800494008BF01366D08CCE720462946FEF7EAFF80
S3150800495002460B46FFF7C8FA41EC100BCDE71046A6
S3150800496000215B000A460131DD02FAD5C1F12005B6
S3150800497000FA01F195E70136B3E70134B0E700BF65
S315080049800000F07F0000E03F081000200010002023
S315080049904FF0FF3C06E000BF4FF0010C02E000BFFD
S315080049A04FF0010C4DF804CD4FEA410C7FEA6C5CE0
S315080049B04FEA430C18BF7FEA6C5C1BD001B050EA83
S315080049C0410C0CBF52EA430C91EA030F02BF90EA6E
S315080049D0020F0020704710F1000F91EA030F58BF2D
S315080049E0994208BF90422CBFD8176FEAE37040F08F
S315080049F0010070474FEA410C7FEA6C5C02D150EA2D
S31508004A00013C07D14FEA430C7FEA6C5CD6D152EAE7
S31508004A10033CD3D05DF8040B704700BF84461046AC
S31508004A2062468C461946634600E000BF01B5FFF7AB
S31508004A30B7FF002848BF10F1000F01BD4DF808ED7B
S31508004A40FFF7F4FF0CBF012000205DF808FB00BF4C
S31508004A504DF808EDFFF7EAFF34BF012000205DF8A6
S31508004A6008FB00BF4DF808EDFFF7E0FF94BF0120F3
S31508004A7000205DF808FB00BF4DF808EDFFF7CEFFF4
S31508004A8094BF012000205DF808FB00BF4DF808ED33
S31508004A90FFF7C4FF34BF012000205DF808FB00BF04
S31508004AA04FEA410C7FEA6C5C02D150EA013C0AD11C
S31508004AB04FEA430C7FEA6C5C02D152EA033C02D10E
S31508004AC04FF0000070474FF001007047014B18681F
S31508004AD0704700BF2810002008B501230422184695
S31508004AE00021FDF7FBF9002008BDFFF7F5BF08B563
S31508004AF00023042219460120FDF7F0F9002008BD1D
S31508004B0008B501213A20FCF7CFFB00F000FABDE812
S31508004B100840FBF735BC01213A20FCF7C5BB70B548
S31508004B20002506462C46052C20D8DFE804F00307A6
S31508004B300B0F13175B210820FBF754FE0C210820E6
S31508004B40FBF750FED1210820FBF74CFE80210820F8
S31508004B50FBF748FE00210820FBF744FE6C1C29469B
S31508004B60E4B208202546FBF73DFE0624A4F10E0311
S31508004B70012B05D85A210820FBF734FE0134D2E769
S31508004B80102C05D1BDE870405D210820FBF72ABE30
S31508004B90B31F195DEFE708B5082000F02AF8BDE84D
S31508004BA00840082000F030B8012307B520F07F4000
S31508004BB040EA8170019068468DF80030FFF7AFFF34
S31508004BC003B05DF804FBFEE7FEE7FEE710B53AB171
S31508004BD0002350F8234041F8234001339A42F8D184
S31508004BE010BD002070474FF4004070474FF47A70AC
S31508004BF070474FF060420123D2F8001E83400B43F2
S31508004C000020C2F8003E70474FF060410122D1F8FB
S31508004C10003E824023EA02030020C1F8003E7047A6
S31508004C2010B588B004460E98009207900D98224653
S31508004C3006909DF8300005900B9804909DF8280082
S31508004C4003900020CDE901300B460121FBF7ECFD6E
S31508004C5008B010BD70B5054614460E4600F031F88A
S31508004C602B685C4034405C402C60BDE8704000F026
S31508004C702CB808B5FBF7C6FCBDE808400021FCF7D0
S31508004C80E7BA0029CCBF01210021FCF7E1BA0221CD
S31508004C904FF42070FCF7ECBE10B5FBF7A1FC0446F8
S31508004CA0FCF722F8C0F102012046FFF7EAFF0121CE
S31508004CB00020FCF7FBFFFCF781FFBDE81040FCF77E
S31508004CC01DBCEFF3108072B6704700B962B6704724
S31508004CD0EFF31180302383F31188704780F311882E
S31508004CE070477047704770B5054614460E46FFF77D
S31508004CF0E8FF2B685C4034405C402C60BDE870409F
S31508004D00FFF7E3BF704783695A06FCD5C163836919
S31508004D109B06FCD5406AC0B2704783695B06FCD522
S31508004D20C163704770B50C46154610B9FDF790FD7E
S31508004D3038B143682BB12A462146BDE87040006861
S31508004D401847232070BDF7B50D4616461C4648B1D0
S31508004D5003B901AC87685FB1234632462946006825
S31508004D60B84706E0FDF774FD04B901AC0028F1D197
S31508004D70232003B0F0BD80F82C10704790F82C0063
S31508004D807047826BD36C43F00403D364704710B545
S31508004D900446826B93695906FCD5002394F84110A2
S31508004DA01A4694F84000FDF799F8002394F8431042
S31508004DB01A4694F84200FDF791F894F84830DA0755
S31508004DC007D5002394F845101A4694F84400FDF7D1
S31508004DD085F894F848309B0707D5002394F84710C0
S31508004DE01A4694F84600FDF779F8A06B0021C36CC3
S31508004DF023F00403C364FDF7A9FAE06B0021FCF76E
S31508004E0053FA002010BD08B5806BFFF786FF002017
S31508004E1008BD38B50468237EA06B33B9C36C23F08C
S31508004E200403C3640123237638BD637E23B394F851
S31508004E302D300BB30025132184F83550FFF76DFF8D
S31508004E40A36BDA6C42F00402DA645B6ADBB2112BFC
S31508004E500DD1012384F834303022237A534303F1E9
S31508004E60A04303F58023DB6E013B2363DCE7132BAA
S31508004E70DAD184F83450EFE7C36C23F00403C36433
S31508004E80D2E700210846FDF717BC00F001018307A9
S31508004E9048BF41F002010020FDF7D4BB38B5FFF743
S31508004EA017FF04460020FDF7F7FB830700F001050E
S31508004EB048BF45F0020500F003010020FDF7DEFBC0
S31508004EC02846FEF7C9F82046BDE83840FFF706BF72
S31508004ED03E20FCF711BA08B5FEF7D4FB00F019F826
S31508004EE000F01EF800F025F8BDE8084000F022B8EA
S31508004EF008B500F020F800F01FF800F01EF8BDE82D
S31508004F00084000F01BB8FEF75BBAFEF719BBFFF7BF
S31508004F10EEBD08B5FBF7DCFBBDE80840FFF73BBE76
S31508004F2008B5FFF7E2FDFEF75DF8BDE80840FEF7B5
S31508004F303BBC704770477047704770477047FEF72D
S31508004F4041BC08B5FFF7C7FFFFF7DDFFFFF7D0FF46
S31508004F50FFF7DBFFFAE72DE9F04F00242DED028B72
S31508004F600D4616469846274642F2107B85B0ADF8A0
S31508004F700E00DDE910A94346324629460DF10E001A
S31508004F80CDF800A0FBF7F8F8434632462946CDF897
S31508004F9000A00DF10E00FEF71BFCD9ED007AF4EE29
S31508004FA0C07AF1EE10FA09DC9FB989ED000A0127EB
S31508004FB095ED008AD6ED008A0024DCE789ED000A23
S31508004FC0002495ED008AD6ED008A01375F45D2D1D7
S31508004FD007E00134E4B2032CF7D185ED008AC6ED6B
S31508004FE0008A002005B0BDEC028BBDE8F08F0023D7
S31508004FF070B54908451CDCB2A14200D870BD10F84E
S31508005000136015F8134044EA062422F813400133C6
S31508005010F1E72DE9F041804615460C4621B91146BF
S31508005020BDE8F041FFF7F2BA2AB9FFF783FA002480
S315080050302046BDE8F08100F031F88542064602D8E0
S31508005040B5EB500FF4D829464046FFF7DFFA074676
S315080050500028ECD0B5422A46214628BF324600F041
S3150800506010F8214640463C46FFF764FAE0E702445A
S315080050700346934200D1704703F8011BF9E77047CE
S3150800508070470A44431E914200D1704710B511F883
S31508005090014B914203F8014FF9D110BD51F8043C78
S315080050A0181F002BBCBF0B58C01870470000000023
S315080050B000000000000000000000000000000000E2
S315080050C0F8B500BFF8BC08BC9E467047F8B500BFE7
S315080050D0F8BC08BC9E4670470000000000000000AF
S315080050E000000000000000000000000000000000B2
S315080050F000000000000000000000000000000000A2
S31508005100050000000000000040420F0005010000F5
S315080051100000000000000000000000001E00000360
S315080051202F55736572732F6D61616E646572733185
S315080051302F706572736F6E616C2F6769742F666561
S31508005140646572617465645F6C6561726E696E67C9
S315080051505F70726F6A6563742F666C5F776F726BC8
S3150800516073706163652F6665646572617465645FF3
S315080051706C6561726E696E675F6F7665725F75736F
S315080051806172742F6765636B6F5F73646B5F342E30
S31508005190342E332F706C6174666F726D2F656D6C6B
S315080051A069622F7372632F656D5F636D752E630079
S315080051B02F55736572732F6D61616E6465727331F5
S315080051C02F706572736F6E616C2F6769742F6665D1
S315080051D0646572617465645F6C6561726E696E6739
S315080051E05F70726F6A6563742F666C5F776F726B38
S315080051F073706163652F6665646572617465645F63
S315080052006C6561726E696E675F6F7665725F7573DE
S315080052106172742F6765636B6F5F73646B5F342E9F
S31508005220342E332F706C6174666F726D2F656D6CDA
S3150800523069622F7372632F656D5F656D752E6300E6
S315080052402F55736572732F6D61616E646572733164
S315080052502F706572736F6E616C2F6769742F666540
S31508005260646572617465645F6C6561726E696E67A8
S315080052705F70726F6A6563742F666C5F776F726BA7
S3150800528073706163652F6665646572617465645FD2
S315080052906C6561726E696E675F6F7665725F75734E
S315080052A06172742F6665646572617465645F6C65A6
S315080052B061726E696E675F6F7665725F757361722C
S315080052C0745F636D616B652F2E2E2F6765636B6F39
S315080052D05F73646B5F342E342E332F706C61746683
S315080052E06F726D2F656D6C69622F696E632F656DC0
S315080052F05F6770696F2E68002F55736572732F6D1F
S3150800530061616E64657273312F706572736F6E6159
S315080053106C2F6769742F6665646572617465645F6E
S315080053206C6561726E696E675F70726F6A656374C9
S315080053302F666C5F776F726B73706163652F666536
S31508005340646572617465645F6C6561726E696E67C7
S315080053505F6F7665725F75736172742F6765636BCD
S315080053606F5F73646B5F342E342E332F706C6174E9
S31508005370666F726D2F656D6C69622F7372632F6528
S315080053806D5F6770696F2E630000FF033F00FF03C0
S315080053903F002F55736572732F6D61616E64657278
S315080053A073312F706572736F6E616C2F6769742F16
S315080053B06665646572617465645F6C6561726E6961
S315080053C06E675F70726F6A6563742F666C5F776F5E
S315080053D0726B73706163652F666564657261746567
S315080053E0645F6C6561726E696E675F6F7665725F22
S315080053F075736172742F6765636B6F5F73646B5F38
S31508005400342E342E332F706C6174666F726D2F656F
S315080054106D6C69622F7372632F656D5F6C646D6165
S315080054202E63002F55736572732F6D61616E646507
S315080054307273312F706572736F6E616C2F67697442
S315080054402F6665646572617465645F6C6561726E0A
S31508005450696E675F70726F6A6563742F666C5F77D3
S315080054606F726B73706163652F66656465726174CC
S3150800547065645F6C6561726E696E675F6F7665728B
S315080054805F75736172742F666564657261746564AD
S315080054905F6C6561726E696E675F6F7665725F7560
S315080054A0736172745F636D616B652F2E2E2F67654E
S315080054B0636B6F5F73646B5F342E342E332F706C9F
S315080054C06174666F726D2F656D6C69622F696E63A4
S315080054D02F656D5F6275732E68002F55736572733D
S315080054E02F6D61616E64657273312F706572736FAB
